:030000000209D61C
:0C09D600787FE4F6D8FD75811D020A1D33
:0A0C4F00C0F9A4B0999282F88090D9
:100B9C0001120B010F0701100306130000000000E7
:100BAC00000119FF010800010900010A00010B00F6
:090BBC00010C00010D00010E0006
:100BC600120C42E4F511751A0285121C850F1D855B
:100BD600121BC2B4C291120C32120B47120AD9125E
:040BE600090880F585
:100B47002092057508018024E508B4011FE4F50823
:100B5700E51164036005E511B4040BE4F511851292
:100B67001C85121B8006751103751A0320930475E3
:100B7700090122E509B4011CE4F509E511B4040EE5
:100B8700AF190519C3EF648094834008800375117A
:040B970004E4F51964
:010B9B002237
:10090800AF0A050AEFC3946450030209D5E4F50A57
:10091800E50B701EE51B94004018E51BD39463504B
:1009280011E51B75F00A84F513E51B75F00A84853B
:10093800F014E50BB4021FE51CC394004018E51C35
:10094800D394635011E51C75F00A84F515E51C7500
:10095800F00A8485F016E50BB4041FE51DC3940066
:100968004018E51DD394635011E51D75F00A84F510
:1009780017E51D75F00A8485F0187580FFE50B14DE
:10098800601614601914601C14601F14602224057A
:100998007022D2A0C2A5801CD2A1C2A08016D2A269
:1009A800C2A18010D2A3C2A2800AD2A4C2A380048A
:1009B800D2A5C2A4AF0B050B74132FF8E6900C4F09
:0D09C80093F580E50BC394064003E4F50BA6
:0109D50022FF
:100AD900E51114602514601814602D14602F240486
:100AE900702EC2B1D2B3D2B2D2B0C2A7D2A68020E0
:100AF900D2B1C2B3D2B2C2B08008D2B1D2B3C2B2FB
:100B0900D2B0D2A7C2A68008120BEA80031208004D
:100B1900E51A14601C14601014601F2403701EC2AF
:100B2900B6D290D2B7D2B522D2B6C290D2B7C2B598
:0E0B390022D2B6D290C2B7D2B522120BEA2257
:10080000E5191460601470030208B2147003020842
:10081000FF24036003020907C2B1D2B3D2B2D2B03F
:10082000209405750C018017E50CB40112E4F50C59
:10083000AF120512C3EF648094E34003E4F5122085
:100840009505750D018017E50DB40112E4F50DAFA6
:10085000121512D3EF6480948050037512638512D1
:100860001C85121B22D2B1C2B3D2B2D2B0209405E1
:10087000750C018017E50CB40112E4F50CAF0F05FF
:100880000FC3EF648094E34003E4F50F20950575F2
:100890000D018017E50DB40112E4F50DAF0F150F32
:1008A000D3EF648094805003750F63850F1C850F10
:1008B0001B22D2B1D2B3C2B2D2B0209405750C01C2
:1008C0008017E50CB40112E4F50CAF100510C3EF6E
:1008D000648094E34003E4F510209505750D0180D4
:1008E00017E50DB40112E4F50DAF101510D3EF6448
:1008F000809480500375106385101C85101B22D2D4
:07090000B1D2B3D2B2C2B0C4
:0109070022CD
:0D0C4200C2A2C2A3C2A4C2A5C2A0C2A12228
:100BEA00D2B0C2B1D2B3D2B2D2B4D2B5C2B6D29016
:100BFA00D2B7D291D2A7C2A6D2A2D2A3D2A0D2A150
:040C0A007580BF2210
:100A6200151BE51114602C14601A24027034AF1C9B
:100A7200151CEF702D751102850F1CE510250F0452
:100A8200F51B801EAF1C151CEF7017751101851028
:100A92001C800FAF1C151CEF7008F51185121C8508
:100AA200121BE51A14602314601224027028AF1D71
:100AB200151DEF7021751A02850F1D22AF1D151D20
:100AC200EF7013751A0185101D22AF1D151DEF70F1
:070AD20005F51A85121D2233
:03000B00020C0ED6
:090C0E00C0E0C0D075D000C007A1
:100C1700758C3D758AB0AF0E050EEFB41406750ED0
:040C270000120A624B
:070C2B00D007D0D0D0E03269
:100C3200438901758C3D758AB0D2AFD2A9D28C227C
:1009E200020BC6E493A3F8E493A34003F68001F25A
:1009F20008DFF48029E493A3F85407240CC8C33316
:100A0200C4540F4420C8834004F456800146F6DFE4
:100A1200E4800B0102040810204080900B9CE47ECD
:100A2200019360BCA3FF543F30E509541FFEE493D9
:100A3200A360010ECF54C025E060A840B8E493A3A0
:100A4200FAE493A3F8E493A3C8C582C8CAC583CACB
:100A5200F0A3C8C582C8CAC583CADFE9DEE780BE83
:010BC500002F
:00000001FF
